:020000040800F2
:1000000080070020350200089D2000086B1F0008B3
:1000100099200008291B00088F3300080000000009
:1000200000000000000000000000000001260008A1
:100030002D1B0008000000009B2300081527000866
:100040004F0200084F0200084F0200084F0200084C
:100050004F0200084F0200084F0200084F0200083C
:100060004F0200084F0200084F0200084F0200082C
:100070004F0200084F0200084F0200084F0200081C
:100080004F0200084F0200084F0200084F0200080C
:100090004F0200084F0200084F0200085D1B0008D5
:1000A0004F0200084F0200084F0200084F020008EC
:1000B000C12B0008812C00084F0200084F020008E5
:1000C0004F0200084F0200084F0200084F020008CC
:1000D0004F020008A93000084F02000855310008FF
:1000E000311B00084F0200084F02000800F002F820
:1000F00000F090F80AA090E8000C82448344AAF132
:100100000107DA4501D100F085F8AFF2090EBAE82F
:100110000F0013F0010F18BFFB1A43F0010318473B
:100120009C4B0000BC4B0000103A24BF78C878C13B
:10013000FAD8520724BF30C830C144BF04680C60ED
:10014000704700000023002400250026103A28BF35
:1001500078C1FBD8520728BF30C148BF0B60704739
:100160006E2900F09782702900F0E985662904F075
:100170002B81652904F02881672904F025816129F4
:10018000AFF3008003681B0A28BF41F08001692992
:1001900000F09A80642900F09780752900F094801F
:1001A0006F2900F07685782900F0B585E92900F0FF
:1001B0001185E42900F00E85F52900F00B85EF2963
:1001C00000F07385F82900F0B4850368DB0928BFC7
:1001D00041F08001632900F05186732900F05686B2
:1001E000E32900F06186F32900F06686002070475D
:1001F0001FB500F0AFFD04000020002103F0F4FC67
:10020000401C60600020002103F0D8FCE0601FBDAE
:1002100010B510BD00F0EAFE1146FFF7E9FF03F04C
:10022000C5F900F011FF03B4FFF7F2FF03BC03F0C0
:100230004CF900000948804709480047FEE7FEE7FF
:10024000FEE7FEE7FEE7FEE7FEE7FEE7FEE7FEE786
:1002500004480549054A064B704700001927000865
:10026000ED000008800100208007002080030020AE
:1002700080030020704700001CB50C46064B7B44F1
:1002800069460090204600F02EFC04460020694696
:1002900000F03CFC20461CBD8B0800000FB41CB5D0
:1002A000084B06AA7B4469460090059800F01BFCA9
:1002B00004460020694600F029FC20461CBC5DF87D
:1002C00014FB0000650800002DE9F04106460024FB
:1002D00010687529314616A510D000F047F900289E
:1002E00002DA404213A507E031688A0701D512A55A
:1002F00002E0490704D511A5012401E000F03FF90F
:1003000000210A2206F1240709E0B0FBF2FCB0FB51
:10031000F2F302FB1C00303078541846491C0028C8
:10032000F3D123462A463046BDE8F04100F059B9E2
:10033000000000002D0000002B0000002000000045
:100340002DE9F05F894604464FF0000ADFF874B1EA
:10035000FB44C0F820A02046E1688847002874D0FC
:10036000252806D0D4E901219047206A401C20624C
:10037000F1E700265F462046E168884720280546C9
:1003800007DB312D05D2781910F8200C08B106438F
:10039000F1E7B00701D526F00406C4F81CA0002739
:1003A000C4F818A02A2D09D0284603F087F838B3DE
:1003B00004EB8708303DC8F8185019E059F8041BC1
:1003C000204604EB87029161E1688847012F0546CA
:1003D00018D1E069002820DA26F020061DE0D8F8C0
:1003E000180000EB800005EB40003038C8F818001A
:1003F0002046E1688847054603F060F80028EED102
:10040000012F0AD02E2D08D12046E16888477F1C95
:100410000546022F46F02006C4DBA069002803DA57
:10042000404246F00106A061F00701D026F0100618
:100430006C2D0BD0682D09D04C2D39D06A2D35D0BC
:10044000742D35D07A2D33D016E038E0E1682F4690
:1004500020468847B842054609D16C2F26D04FF474
:100460008060E168064320468847054604E06C2F1B
:100470001AD04FF4807006430DB3A5F1410019283E
:1004800002D8203546F400664A46294620462660B2
:100490004E46FFF765FE80B101280BD0F61D26F011
:1004A000070000F1080956E74020E4E78020D8E77C
:1004B0000020D6E706F104094DE7284652E7206AF6
:1004C000BDE8F09F904800004FF0000200B51346D1
:1004D00094469646203922BFA0E80C50A0E80C5064
:1004E000B1F12001BFF4F7AF090728BFA0E80C5015
:1004F00048BF0CC05DF804EB890028BF40F8042B0E
:1005000008BF704748BF20F8022B11F0804F18BF7A
:1005100000F8012B7047704770477047704770B5FF
:10052000044685690068C10601D5302600E0202612
:10053000C00707D070BDD4E9012130469047206A3A
:10054000401C20626D1EF6D570BD70B504468569ED
:100550000078C00707D170BDD4E901212020904761
:10056000206A401C20626D1EF6D570BD09684A05E0
:1005700001D540B27047C905FCD500B27047096883
:100580004A0501D5C0B27047C905FCD580B2704795
:1005900070B50C460546012A05D02878800600D59E
:1005A000EA69002302E0012305E05B1C934202D2CA
:1005B000E05C0028F9D1A869E618C01AA861286A89
:1005C000184428622846FFF7AAFF04E0D5E9012174
:1005D00014F8010B9047B442F8D32846FFF7B5FF53
:1005E00070BD2DE9F0470D4699469246044600F14C
:1005F00024080168880604D5E06921F01001216013
:1006000000E00120A84201DD471B00E00027A169AE
:100610007A1902EB0900081AA0612078C00602D4FA
:100620002046FFF77CFF002608E0D4E901211AF8F4
:1006300006009047206A401C761C20624E45F4DB81
:100640002078C0060AD52046FFF769FF06E0D4E906
:10065000012130209047206A401C2062381EA7F1FB
:100660000107F4DC07E0D4E9012118F80500904700
:10067000206A401C2062281EA5F10105F3DC2046FB
:10068000FFF763FF2078000602D50220BDE8F0875F
:100690000120FBE711680268006A530501D5087064
:1006A0000AE0D30501D5088006E0130603D5C2177A
:1006B000C1E9000200E008600120704770472DE9A1
:1006C000FF4F0C461E464FF0FF378BB0D2E90001BA
:1006D000DDF860800A908A46C1F30A5505B93D46A7
:1006E000002108464FF00000BAF1000F00F440006E
:1006F00005DA00EB80004FF4400101EA50004FEAB8
:100700009059B9F1010F00DDB9460A9850EA4A0044
:100710000ED044F61050A5F2FF3545432F14B8F122
:10072000000F1ED07542291E1EDDC9F100021CE01B
:10073000B8F1010F4FF0000001D0302103E0F24387
:1007400005E02154401CB042FBDB30460022002172
:1007500021540B99C1F80880C1E900200FB0BDE811
:10076000F08FBD1B6D1CDEE74A4600DA694206A821
:1007700000F0A6FB06AB93E8070003AB83E8070095
:1007800050460A9900F0AAFC8DE80700A0F5005039
:100790001F3800900398002D0ADD42F21F014A46DF
:1007A0000844002303A90390684600F013FF09E002
:1007B000A0F500504A461F38002303A9039068465D
:1007C00000F01DFF8DE807000004000C03D04FF07F
:1007D000FF30410800E01046B8F1000F03D00022BE
:1007E000009215461EE0751E05D400F0B7FA3032AF
:1007F00062556D1EF9D5B3460122084302D000228E
:100800007F1C04E02078302801D100227F1E002ABE
:10081000099784D01DE0112D07DA00F09FFA3032DD
:1008200062556D1C50EA0102F5D1084302D00098D0
:10083000C8B10EE00021681E05E0235C625C6354D1
:100840002254401E491C8142F7DBAB46A81B401EC8
:100850000990002004F80B000B98099AC0F8088052
:10086000C0E9002B7AE711264FF0000857E72DE981
:10087000F04F88460446D21D22F0070191B0D1E91D
:100880000001CDE90A0102F005FE02460B98C00FF7
:1008900001D02D2007E02068810701D52B2002E040
:1008A000202101EAC000032A099001D0072A05DBB4
:1008B00003464146204600F097FA0BE12078800677
:1008C00001D5E06900E00620B8F1650F814606D049
:1008D000B8F1660F18D0B8F1670F70D131E0002081
:1008E000B9F1110F009001DB112301E009F10103BF
:1008F0000AAA01A90CA8FFF7E2FEDDE90C700026A8
:1009000009F10105834647E001204B4600904FF076
:1009100000470AAA01A90CA8FFF7D1FEDDE90DB036
:100920000C995D46002610B909F101000D18B9EBCC
:10093000050003D4C0F1FF3609F10105A5EB09005C
:100940002BE0B9F1010F01DA4FF001090020B9F1F4
:10095000110F0090484601DD112300E003460AAA6A
:1009600001A90CA8FFF7ABFEDDE90C704D4600268F
:100970008346207800070AD4AB4500DA5D4601A81B
:10098000012D04DD411911F8011C302907D04F4514
:1009900002DA17F1040F04DA012082460FE06D1E1F
:1009A000EEE7002F02DCED1B3E4403E0781CA8427A
:1009B00000DD7D1CB81B00F1010A4FF000472078D4
:1009C000000703D4AA4501DB4FF0FF3A0021B7F13D
:1009D000004F0DF143088DF8431024D002202B2343
:1009E000002F01DA7F422D230A21021EA0F101000F
:1009F00000DC5FB197FBF1FC97FBF1F201FB1C7C83
:100A000017460CF1300C08F801CDEEE7A8F1010013
:100A100003702188090501D5452100E06521A0F179
:100A2000010800F8011C09980FA9A1EB0807FF1D98
:100A300000B10120411901EBEA70A1693844081A9C
:100A4000401EA0612078C00602D42046FFF767FD53
:100A5000099828B1D4E901219047206A401C2062FE
:100A60002078C00622D52046FFF759FD1EE0002E53
:100A700004DBB34502DD01A8805D00E03020D4E94D
:100A800001219047206A401C2062761CAAF10100D7
:100A90005FEA000A0AD100F05DF9C0680168405CB5
:100AA000D4E901219047206A401C2062281EA5F14C
:100AB0000105DCDC07E0D4E9012118F8010B9047BF
:100AC000206A401C2062381EA7F10107F3DC204693
:100AD000FFF73BFD032011B041E6000001694A1C0D
:100AE00002610878704700B58FB0CDE9013100216F
:100AF000059105497944CDE9031011466846FFF791
:100B00001FFC0FB000BD0000E5FFFFFF0A6802F800
:100B1000010B0A60704700002DE9FF5F15468A4609
:100B20000446DFF8AC80F8440027D8E900103E46C0
:100B3000CDE9001010E03AF816106A4602A800F05D
:100B400031FA411C07D02178890603D5E2693918AA
:100B500091420DD80744761C2078800602D5E069C2
:100B6000B84205DDAE42E6DB3AF816000028E2D1D5
:100B7000A069C01BA0612046FFF7D1FCD8E9001096
:100B8000CDE90010002017E03AF818106A4602A8D4
:100B900000F008FAB0F1FF3F81460BD000250DF1BF
:100BA000080B05E0D4E901211BF8050090476D1CF6
:100BB0004D45F7D308F10100B0428046E4DB206ADE
:100BC000384420622046FFF7C0FCBDE8FF9F0000CC
:100BD000CE4000002DE9F0418046D21D22F00702F0
:100BE0000025D2E90002F52915A614D0011E72F1E4
:100BF000000106DA0023D0EB030063EB020211A62A
:100C000008E0D8F800108B0701D50FA602E04907CD
:100C100001D50EA601251146002408F1240704E0A1
:100C200000F09CF830323A55641C50EA0102F7D1CA
:100C30002B46324621464046BDE8F041FFF7D1BC85
:100C4000000000002D0000002B000000200000002C
:100C500030B4002100F1240408E002F00705D208B6
:100C6000303542EA4372DB086554491C52EA0305F9
:100C7000F3D10468002310A2250707D5A40600D4E9
:100C800021B1C46901230DA2641EC46130BCFFF709
:100C9000A8BC10B5044621461068FFF770FC024658
:100CA0002046BDE810400023D2E7D21D22F0070104
:100CB000D1E90023CCE70000000000003000000074
:100CC000F0B40D460188090502D5214C7C4402E0B0
:100CD0001F4C7C440E34002100F1240608E002F091
:100CE0000F071209E75D42EA03721B097754491C9A
:100CF00052EA0307F3D102780023120704D5702DBE
:100D000006D009B1022311342246F0BCFFF769BCBA
:100D100001231034F8E770B504460D4621461068EB
:100D2000FFF72DFC024629462046BDE8704000230F
:100D3000C6E7D21D22F00703D3E90023C0E703680A
:100D4000126843F0200303600823C3610023B7E760
:100D5000303F0000004870474001002030B5B0F13E
:100D60000A024FEA900E71F100034EEA817EB0EB69
:100D70000E0061EB91014FEA101E4EEA017E10EB6E
:100D80000E0041EB11114FEA102E4EEA016E10EBEE
:100D90000E0041EB11214FEA104E4EEA014E10EBCE
:100DA0000E0041EB1141401841F100014FEAD00023
:100DB00040EA41704FEAD10110EB80054FEA81040F
:100DC00044EA907444EB01046D1944EB0404521B93
:100DD000A3414FF0000348BF0A3200D530BD401C8C
:100DE00041F1000130BD00002DE9F0411F460446ED
:100DF00003260168072A01F4006004DB08B116A588
:100E000005E016A503E008B115A500E015A521F041
:100E100010002060A069C01EA0610FB1401EA0613B
:100E20002046FFF77CFB4FB1D4E9012138469047BB
:100E3000206A401C2062C01C206206E0206AFAE79B
:100E4000D4E9012115F8010B9047761EF8D220460F
:100E5000FFF77BFBBDE8F0814E414E006E616E00F6
:100E6000494E4600696E660010B5436913B1AFF391
:100E7000008001E0FFF78CFB012010BD127800F12B
:100E800024010A7000224A700122EDE711684FF038
:100E9000FF32E9E710B5436913B1AFF3008001E019
:100EA000FFF73AFE012010BD128800F12401828470
:100EB0000022C2840122EDE711684FF0FF32E9E71A
:100EC0002DE9F047814616468AB0354878440DC86A
:100ED0008DE80D0032487844801C03AC0DC884E8CE
:100EE0000D0041F69B300844372190FBF1F290FB56
:100EF000F1F5A5F1800501FB12041B3C02D564420B
:100F0000012000E00020DFF898A080460027FA4486
:100F1000AAF1BE0A0EE0E0070AD03246684607EBA7
:100F2000470101230AEB810100F069FB8DE807000E
:100F300064107F1C002CEED1194F7F44AE3F19E0A6
:100F4000E80715D007EB04100DF1180A90E80E0021
:100F50008AE80E00C068F04201D198190890324624
:100F6000012306A903A800F04AFB03AB83E80700AE
:100F70006D10641C002DE3D14FF001033246694629
:100F8000B8F1000F03A802D000F024FB01E000F04C
:100F900036FBC9E90001C9F808200AB0BDE8F087AE
:100FA000D43D000070B516460C46054600F044F8E6
:100FB000036893F80101012806D0FF2C0FD8185DB3
:100FC00068B101202C7070BDD3F80701324621466C
:100FD00003F2071303442846BDE8704018474FF05A
:100FE000FF3070BD00487047200100207546FFF7B4
:100FF000F9FFAE4605006946534620F007008546D6
:1010000018B020B5FFF724F9BDE820404FF00006E6
:101010004FF000074FF000084FF0000B21F00701E0
:10102000AC46ACE8C009ACE8C009ACE8C009ACE823
:10103000C0098D467047000010B5FFF78BFE001DFC
:1010400010BD00BFA52B000010B50446AFF3008013
:101050002046BDE81040FFF7E6B800004FF0013C25
:1010600050F8042B51F8043B9A4221D1A2EB0C0317
:10107000934313EACC1317D150F8042B51F8043BD7
:101080009A4215D1A2EB0C03934313EACC130BD174
:1010900050F8042B51F8043B9A4209D1A2EB0C03FF
:1010A000934313EACC13DBD04FF00000704700BF2E
:1010B000D01A01BAB1FA81F101F0180122FA01F057
:1010C000CB40C1F12001DBB2C0B2C01A2CFA01F34F
:1010D000D11A914311EAC311E6D170475FEA400C7F
:1010E00008BF91F0000F4FEA8C234FEAC12243EA78
:1010F00051514FEA1C5018BF00F5F0404FEA300044
:1011000018BF41F000415FEA6C5C00F02980BCF13F
:10111000FF3F08BF40F080407047130C06BF120429
:101120004FF0100C4FF0000C130E04BF12020CF124
:10113000080C130F04BF12010CF1040C930F04BF31
:1011400092000CF1020CD30F04BF52000CF1010C01
:1011500011464FF00002A0F11F00A0EB0C007047F9
:1011600011F0004F08BF704731F000413FF4D5AF98
:101170000B0C06BF09044FF0100C4FF0000C0B0EC7
:1011800004BF09020CF1080C0B0F04BF09010CF19C
:10119000040C8B0F04BF89000CF1020CCB0F04BFB1
:1011A00049000CF1010CCCF12003A0EB0C0022FA59
:1011B00003F302FA0CF241EA030100F10100704767
:1011C00020F07F4C80EA030023F07F47ACEB07035D
:1011D00003F57C5300F0004003F1FF032DE9804943
:1011E0004FEA154B09B44FEA144325EA0B4E24EAA3
:1011F00003480FF2042606EB132749083E785FEAFE
:10120000320203FB0667C7F5000707FB06F64FEA45
:1012100054374FEAD64606F1020607FB066CCCF1BE
:10122000005C4FEA1C472CEA074C07FB06F40CFB5A
:1012300006F504EB15464FEA961634BF00204FF032
:1012400000404FEAD13706FB07FC4FEA1C4C0CFB71
:101250000BF7D21B03FB0CF761EB07010CFB0EF73E
:10126000B0EB074072EB17420CFB08F734BFA2EB60
:101270000742B2EB074261EB17414FEA0C444FEAD9
:10128000910706FB07FC4FEA1C4C0CFB0BF7B0EB7D
:10129000C74072EB573203FB0CF734BFA2EBC742D7
:1012A000B2EBC74261EB57310CFB0EF7B0EBC70056
:1012B00072EB57720CFB08F734BFA2EBC702B2EB1C
:1012C000C70261EB5771039F4FEA816141EA9211B6
:1012D00004EBCC044FEAD1374FEA826206FB07FCED
:1012E00042EA90124FEA80604FEA1C4C0CFB0BF76D
:1012F000D21B03FB0CF761EB07010CFB0EF7B0EB05
:10130000074072EB17420CFB08F734BFA2EB074211
:10131000B2EB074261EB17414FEA8C554FEA910758
:1013200004EB9C2406FB07FC4FEA1C4C0CFB0BF760
:10133000B0EBC74072EB573203FB0CF734BFA2EBA4
:10134000C742B2EBC74261EB57310CFB0EF7B0EB73
:10135000C70072EB57720CFB08F734BFA2EBC70251
:10136000B2EBC70261EB577115EB4C254FEA816177
:1013700041EA92114FEA82624FEAD13742EA901273
:1013800006FB07FC44F100044FEA80604FEA1C4C66
:101390000CFB0BF7D21B03FB0CF761EB07010CFBFB
:1013A0000EF7B0EB074072EB17420CFB08F734BFA7
:1013B000A2EB0742B2EB074261EB174115EB1C159C
:1013C0004FEA813141EA92414FEA823242EA904249
:1013D0004FEA80304FEA0C7644F1000448EA0343B8
:1013E0004EEA0B484FF0000EB2EB080C71EB03070E
:1013F00024BF624639464EEB0E0E4FF0000B00182C
:10140000524149414BEB0B0BB2EB080C71EB03075C
:101410007BF1000B24BF624639464EEB0E0E4FF0B7
:10142000000B0018524149414BEB0B0BB2EB080C7F
:1014300071EB03077BF1000B24BF624639464EEB8C
:101440000E0E51EA020718BF46F0010616EB0E76A3
:1014500055F1000254F1000103D5BDE88901BDE852
:101460000088BDE88901BDE80048B619524141EB4A
:101470000101A3F10103704780807F7E7D7C7B7A30
:101480007978777676757473727171706F6E6E6D30
:101490006C6C6B6A6A6968686766666564646363D6
:1014A00062616160605F5F5E5E5D5D5C5C5B5B5A5C
:1014B0005A595958585757565655555554545353C9
:1014C00052525251515050504F4F4F4E4E4D4D4D24
:1014D0004C4C4C4B4B4B4A4A4A494949484848476F
:1014E00047474746464645454544444444434343AD
:1014F0004342424242414141002B9C4630D4770056
:101500002BD01CB54FEA370703B44FF010004FF053
:101510001001BAF1000F06D0BCF1000FDCBF40F0A3
:10152000080040F008014FF000000FBCBDE810407B
:101530000BF1010BBBF1010F08BF5FEA170722BFD8
:1015400012F1010211F101014FF0004143F10003DA
:1015500000F0004043EA00007047F9D35708D0E795
:1015600046EA064613F1400F4FEA16461FDD13F117
:10157000200FDFBF16430A46002120335B42BED056
:10158000C3F1200746EA064602FA07F74FEA164675
:1015900046EA0706C3F1200722FA03F201FA07F729
:1015A00021FA03F14FF0000342EA0702A7E746EAF7
:1015B000020646EA06464FEA164646EA0106BCBF60
:1015C00046EA0646360C4FF000034FF000024FF09B
:1015D000000194E72DE9804C9A46934670B491E857
:1015E000380007C831EA400C48BF34EA430C03D541
:1015F000FFF7E6FDFFF780FFF0BCBDE8008C2DE9AA
:10160000804C9A46934670B491E8380007C810F0B1
:10161000804F08BF13F0804F03D100F005F8FFF7AB
:101620006BFFF0BCBDE8008C20F07F4780EA030030
:1016300023F07F4C07EB0C03A3F57C5300F0004034
:10164000A3F1FE0392F0000F00F0B38095F0000FBD
:1016500000F077802DE901494FEA11404FEA144626
:1016600021EA004800FB06FC24EA064708FB06F6D0
:1016700007FB08F800FB07F718EB06484CEB164C85
:101680004FEA124B18EB07484FEA15464CEB174050
:1016900022EA0B4E0BFB06FC25EA06470EFB06F67C
:1016A00007FB0EFE0BFB07F71EEB064E4CEB164C32
:1016B0004FF000061EEB074E4CEB174B18EB0B08D8
:1016C00040F1000018EB0E0B58EB000840F1000051
:1016D0008F1A4FF000013CBFC943661B14BFB5EB26
:1016E000040C00213CBFC943F61B4FEA17444EEAE5
:1016F0008E0E27EA04454FEA1C4704FB07622CEADA
:10170000074C05FB07F70CFB05F604FB0CFC16EB7E
:10171000074642EB174216EB0C4642EB1C421BEB12
:10172000060658EB0202414146EA9E0601D5BDE895
:101730000189B619524141EB0101A3F10103BDE852
:1017400001894FEA14454FEA114724EA054621EA88
:10175000074C05FB07F406FB07F70CFB06F105FB3E
:101760000CFC11EB074144EB17444FEA124711EB15
:101770000C4144EB1C4422EA074C05FB07F206FB34
:1017800007F70CFB06F605FB0CFC16EB074642EBD5
:10179000174216EB0C4642EB1C456A1854F1000147
:1017A00048BF7047B619524141EB0101A3F1010353
:1017B000704795F0000F37D04FEA11424FEA1447B7
:1017C00021EA024624EA074C02FB07F106FB07F771
:1017D0000CFB06F402FB0CFC14EB074441EB174135
:1017E0004FEA154714EB0C4441EB1C4125EA074C2A
:1017F00002FB07F506FB07F70CFB06F602FB0CFCE9
:1018000016EB074645EB174516EB0C4645EB1C421D
:10181000121951F1000148BF7047B619524141EB0E
:101820000101A3F1010370474FEA14454FEA114744
:1018300024EA054621EA074C05FB07F106FB07F7FA
:101840000CFB06F24FF0000605FB0CFC12EB074206
:1018500041EB174112EB0C4251EB1C4148BF704762
:10186000921841EB0101A3F10103704721B1826895
:1018700042F00102826003E0826822F0010282608D
:101880007047000010B504461248844208D1012177
:10189000401500F0AFFD0021601500F0ABFD17E032
:1018A0000D48844208D10121001500F0A3FD00215C
:1018B000201500F09FFD0BE00848844208D101216B
:1018C000C80300F097FD00214FF4004000F092FDA6
:1018D00010BD00000024014000280140003C0140F0
:1018E000014600208A6802F004020AB1012000E0EB
:1018F000002070470146C86C80B270470246002045
:1019000013680B400BB1012000E000207047014636
:1019100000208A6802F008020AB1012000E00020DD
:101920007047000030B502460020002350680F4C7D
:1019300020400D790C6844EA0524204350609068EB
:101940000B4C2040D1E902542C434D7944EA450424
:1019500020439060D06A20F470000C7C641EE4B2D6
:10196000234340EA0350D06230BD0000FFFEF0FF89
:10197000FDF7F1FFF0B504460D4600200021092DCA
:1019800011DDE068A5F10A0606EB4607072606FA10
:1019900007F18843A5F10A0606EB460603FA06F1AD
:1019A0000843E0600CE0206905EB4507072606FACE
:1019B00007F1884305EB450603FA06F10843206169
:1019C000072A0FDA606B561E06EB86071F2606FAFB
:1019D00007F18843561E06EB860605FA06F1084312
:1019E000606322E00D2A0FDA206BD61F06EB860714
:1019F0001F2606FA07F18843D61F06EB860605FA6E
:101A000006F10843206310E0E06AA2F10D0606EB40
:101A100086071F2606FA07F18843A2F10D0606EB9A
:101A2000860605FA06F10843E062F0BD816841F0E0
:101A300008018160704721B1826842F4A00282608F
:101A400003E0826822F4A00282607047816841F05E
:101A5000040181607047000000B587B001214FF498
:101A6000017000F0B7FC4FF4004000F097FC10202C
:101A7000ADF8040000208DF8070001A9174800F018
:101A800061F91748FFF7FEFE002002908DF80C0068
:101A90008DF80D004FF46020049000200590012087
:101AA0008DF8180002A90E48FFF73CFF01210C48F1
:101AB000FFF7DCFE0A48FFF7B9FF00BF0848FFF751
:101AC00026FF0028FAD10648FFF7C0FF00BF0448F0
:101AD000FFF706FF0028FAD107B000BD000801405B
:101AE0000024014010B500200C49086001200C4979
:101AF000C1F8B001002009493039086001200849C7
:101B0000C1F8800140F2DC51064801F048FA40F289
:101B1000DC51044801F045FA10BD0000B4812142B7
:101B200000802142002C014000BFFEE7704700000A
:101B300010B50A2001F0EEFC4FF48051054800F08A
:101B4000D5F910B90020044908604FF4805000F026
:101B500067F810BD000801401000002010B50A20F1
:101B600001F0D8FC80210B4800F0C0F901280CD10D
:101B700009480068042803D101200749086004E0EF
:101B800005480068401C04490860802000F048F8BF
:101B900010BD000000080140100000200EB500F04C
:101BA00021FA0121084600F015FC0C21002000F06C
:101BB000A9F84FF48050019000208DF808000C2007
:101BC0008DF8090001A800F031F80721002000F08D
:101BD00099F88020019008208DF8090001A800F0F4
:101BE00025F817208DF8000002208DF80100032051
:101BF0008DF8020001208DF80300684600F050FACD
:101C000028208DF8000002208DF8010001208DF8B9
:101C100002008DF80300684600F042FA0EBD000095
:101C20000149086070470000140401400021234965
:101C30008279002A3AD00A46126803689A430B4612
:101C40001A600A1D126803689A430B1D1A60027914
:101C500011440A6803681A430A60184A0832126875
:101C600003689A43154B08331A601A1D12680368FB
:101C70009A43124B0C331A604279102A0ED11A1F64
:101C8000126803681A430D4B08331A601A1D126854
:101C900003681A43094B0C331A600DE00749427977
:101CA00011440A6803681A430A6005E00279114486
:101CB0000A6803689A430A60704700000004014004
:101CC00010B501200C49086000200C49C1F8B00192
:101CD000012009493039086000200849C1F8800115
:101CE00040F2DC51064801F05AF940F2DC51044858
:101CF00001F057F910BD0000B4812142008021425B
:101D0000002C014030B500228B071C0F0F2303FA73
:101D100004F20B4B8C1053F824309343084C8D1075
:101D200044F8253023468C1053F824308C07240FB8
:101D300000FA04F42343024C8D1044F8253030BDE2
:101D4000080001402DE9F041024600250026002050
:101D500000230024002791F803C00CF00F0591F830
:101D600003C00CF0100CBCF1000F03D091F802C0BE
:101D70004CEA050591F800C0BCF1000F31D01468A1
:101D800000202BE04FF0010C0CFA00F3B1F800C07A
:101D90000CEA03069E4220D183004FF00F0C0CFA90
:101DA00003F7BC4305FA03FC4CEA040491F803C0B2
:101DB000BCF1280F06D14FF0010C0CFA00FCC2F860
:101DC00014C00AE091F803C0BCF1480F05D14FF0F0
:101DD000010C0CFA00FCC2F810C0401C0828D1D33A
:101DE0001460B1F800C0BCF1FF0F34DD546800206E
:101DF0002EE000F1080C4FF0010808FA0CF3B1F8DE
:101E000000C00CEA03069E4221D183004FF00F0C64
:101E10000CFA03F7BC4305FA03FC4CEA040491F8FE
:101E200003C0BCF1280F05D100F1080C08FA0CF82A
:101E3000C2F8148091F803C0BCF1480F07D100F13B
:101E4000080C4FF0010808FA0CF8C2F81080401C8A
:101E50000828CED35460BDE8F0810000F0B50A46F2
:101E6000002300240021002500F00046B6F1004FB9
:101E700002D11D4EF16901E01B4E7168C0F30345AC
:101E800083B200F44016B6F5401F08D121F070610E
:101E9000154E766826F07066134F7E6012E000F4EF
:101EA0008016B6F5801F06D1032606FA05F4A14375
:101EB00041F0706106E0460D360103FA06F6B143C3
:101EC00041F0706122B1460D360103FA06F6314346
:101ED00000F00046B6F1004F02D1034EF16101E07F
:101EE000014E7160F0BD000000000140024600207C
:101EF00093680B400BB1012000E000207047416166
:101F0000704701617047000010B5044607230122A5
:101F100021460948FFF72EFD01210748FFF78BFDF9
:101F200000BF02210448FFF7E9FC0028F9D002486D
:101F3000FFF7E0FC10BD0000002401402DE9F04156
:101F400007460C460025002608E03846FFF7DCFF70
:101F50000544052001F0DEFA701CC6B2A642F4DB8F
:101F6000B5FBF4F080B2BDE8F08100BFFEE70000F1
:101F700010B54FF480410948FFF7C3FF4FF400410B
:101F80000648FFF7BEFF4FF400410448FFF7B7FFD4
:101F90004FF480410148FFF7B2FF10BD001001402F
:101FA00010B54FF480410748FFF7ABFF4FF40041F5
:101FB0000448FFF7A4FF4FF400410248FFF7A1FFD8
:101FC00010BD00000010014010B54FF480410448DE
:101FD000FFF797FF4FF480410148FFF790FF10BDD6
:101FE0000010014008B50121042000F0F3F9802021
:101FF000ADF8000028208DF8030069460748FFF778
:10200000A1FE4FF48050ADF8000048208DF8030089
:1020100069460248FFF796FE08BD0000000801402F
:1020200008B50121102000F0D5F94FF40050ADF8AB
:10203000000014208DF8030003208DF8020069468B
:102040000448FFF77FFE4FF400510248FFF759FFA5
:1020500008BD00000010014010B500200B490860C9
:1020600001200B49C1F8B00108493039086000204F
:102070000749C1F8800140F2DC51064800F08FFFAB
:1020800040F2DC51034800F08CFF10BDB4812142C6
:1020900000802142002C014000BFFEE77047000095
:1020A00070B5002100230F22C47804B3154C2468B6
:1020B00004F4E064C4F5E064210AC1F10403CA40F9
:1020C000447804FA03F184781440214309010E4C4A
:1020D0000678A155047804F01F050124AC4005786A
:1020E0006D11AD0005F1E025C5F8004109E0047867
:1020F00004F01F050124AC40044D0678761145F824
:10210000264070BD0CED00E000E400E080E100E05E
:1021100002490143024A1160704700000000FA05BD
:102120000CED00E070B5002418E004F1B0000021CF
:1021300000F027F90021084600F023F900211020C3
:1021400000F01FF9002505E00121002000F019F939
:10215000681CC5B2802DF7DB601CC4B2082CE4DB20
:1021600070BD000008B50121102000F033F94FF4D4
:102170004040ADF8000010208DF8030003208DF8DA
:10218000020069463C48FFF7DDFD4FF440413A4804
:10219000FFF7B7FE4FF4487001F0BCF90021AE2004
:1021A00000F0EFF80021084600F0EBF800211020C5
:1021B00000F0E7F80021402000F0E3F80021B02013
:1021C00000F0DFF80021812000F0DBF80021FF2083
:1021D00000F0D7F80021A12000F0D3F80021A620BC
:1021E00000F0CFF80021A82000F0CBF800213F201C
:1021F00000F0C7F80021C82000F0C3F80021D32068
:1022000000F0BFF80021084600F0BBF80021D520FF
:1022100000F0B7F80021802000F0B3F80021D820AA
:1022200000F0AFF80021052000F0ABF80021D92024
:1022300000F0A7F80021F12000F0A3F80021DA2037
:1022400000F09FF80021122000F09BF80021DB2015
:1022500000F097F80021302000F093F800218D2045
:1022600000F08FF80021142000F08BF80021AF203F
:1022700000F087F808BD00000010014070B504466A
:102280000D4605F1B000002100F07BF8102141EA75
:102290001410002100F075F804F00F00002100F088
:1022A00070F870BD2DE9F04707460E4690469946F6
:1022B00000250024A8F12000C5B27F2F02DD0027F1
:1022C000B01CC6B2B9F1100F24D131463846FFF721
:1022D000D5FF002408E004EB0511194A505C0121E8
:1022E00000F04FF8601CC4B2082CF4DB701CC1B2C3
:1022F0003846FFF7C3FF002409E004EB051108315D
:102300000F4A505C012100F03CF8601CC4B2082C5C
:10231000F3DB12E031463846FFF7B0FF00240AE055
:1023200005EB4501074A02EB4101085D012100F080
:1023300028F8601CC4B2062CF2DBBDE8F087000070
:10234000F4450008CC4300082DE9F04104460F464F
:102350001546984600260FE0AA5D434639462046BA
:10236000FFF7A0FF04F10800C4B2782C02DD0024BE
:10237000B81CC7B2701CC6B2A85D0028ECD1BDE87D
:10238000F08170B504460D461DB1E0B201F06CF865
:1023900002E0E0B201F052F870BD70470146002043
:1023A000034A506820F440400843506070470000E2
:1023B0000010024029B1064AD2690243044BDA6197
:1023C00004E0034AD2698243014BDA61704700009E
:1023D0000010024029B1064A92690243044B9A61F7
:1023E00004E0034A92698243014B9A6170470000FE
:1023F0000010024029B1064AD2680243044BDA6059
:1024000004E0034AD2688243014BDA60704700005F
:102410000010024030B500210022002400232D4D81
:102420006D6805F00C0121B1042905D0082923D1DC
:1024300005E0294D056022E0274D05601FE0254D90
:102440006D6805F47012234D6D6805F48034022523
:1024500005EB92421CB9214D554305600BE01D4D23
:102460006D6805F400351DB11C4D5543056002E053
:10247000194D5543056002E0174D056000BF00BFD0
:10248000144D6D6805F0F0010909154D6B5C056888
:10249000DD4045600F4D6D6805F4E061090A104D9F
:1024A0006B5C4568DD4085600A4D6D6805F46051E0
:1024B000C90A0B4D6B5C4568DD40C560054D6D6814
:1024C00005F44041890B074D6B5CC568B5FBF3F51E
:1024D000056130BD0010024000127A0000093D0085
:1024E000360000204600002010B501200B4908608E
:1024F00000200B49C1F8B0010849303908600120BB
:102500000749C1F8800140F2DC51064800F047FD60
:1025100040F2DC51034800F044FD10BDB48121427B
:1025200000802142002C01402DE9F0474FF4FA7061
:1025300000F0F0FF01201D4908600D2001F010F8A7
:1025400000201B49C1F880011A48007800F0800083
:1025500038B31848007800F03F0017490860084673
:102560000088000408600846006814490988084487
:10257000114908600846006801F005FD0646104A4A
:10258000104B01F017FD044600224FF0804301F08C
:1025900073FB804601F0C8FC0B4908600020054928
:1025A000087009480068BDE8F087000080012142FA
:1025B0000000214228000020000000202A00002006
:1025C0004C37894160E5A03F0400002008B5012197
:1025D0000420FFF7FFFE0120ADF8000010208DF869
:1025E000030003208DF8020069460448FFF7AAFBA8
:1025F00001210248FFF785FC08BD000000080140EA
:10260000704710B500F002F810BD00000CB50020B6
:10261000019000903348006840F4803031490860F0
:1026200000BF3048006800F4003000900198401C62
:102630000190009818B90198B0F5A06FF1D1294820
:10264000006800F4003010B10120009001E000208B
:1026500000900098012843D12348006840F0100002
:10266000214908600846006820F003000860084619
:10267000006840F0020008601A4840681949486044
:102680000846406848600846406840F480604860FA
:102690000846406820F47C1048600846406840F4D2
:1026A000E81048600846006840F08070086000BF8D
:1026B0000C48006800F000700028F9D00948406814
:1026C00020F00300074948600846406840F00200D7
:1026D000486000BF0348406800F00C000828F9D1AA
:1026E0000CBD00000010024000200240042808D168
:1026F0004FF0E021096941F004014FF0E02211613F
:1027000007E04FF0E021096921F004014FF0E022D9
:10271000116170477047000010B51348006840F021
:1027200001001149086008464068104908400E49F8
:102730004860084600680E4908400B490860084692
:10274000006820F4802008600846406820F4FE00FD
:1027500048604FF41F008860FFF753FF4FF00060A0
:102760000449086010BD0000001002400000FFF89E
:10277000FFFFF6FE08ED00E008B501210820FFF795
:1027800029FE43F20300ADF8000010208DF803008D
:1027900003208DF8020069460448FFF7D3FA43F29C
:1027A00003010248FFF7ADFB08BD0000000C01402B
:1027B00008B501210420FFF70DFE01210820FFF7D5
:1027C00009FE01210C48FFF749FB3820ADF8000055
:1027D00028208DF8030069460848FFF7B3FA4FF444
:1027E0000040ADF8000028208DF803006946044839
:1027F000FFF7A8FA08BD000000023000000C0140FD
:1028000000080140F0B50C46154600220021068C58
:102810004FF6FE773E400684028B018C4FF60C7615
:1028200032407E1C06EA03162E433243104EB0425D
:102830000ED0104EB0420BD0B0F1804F08D00E4EEB
:10284000B04205D00D4EB04202D00D4EB04206D17E
:102850004FF6FD76314044F00106314305E04FF676
:10286000F576314044F00106314302830184F0BD26
:10287000002C0140003401400004004000080040EA
:10288000000C0040F0B50C46154600220021002641
:10289000078C4FF6EF7C07EA0C070784028B018C4C
:1028A0004FF6FF7707EA041640F6FF473A404FF627
:1028B000FF7707EA03373A434FF6FF7707EA052722
:1028C0003A43114FB8420ED0104FB8420BD0B0F17E
:1028D000804F08D00E4FB84205D00E4FB84202D0FC
:1028E0000D4FB84206D14FF6DF77394046F010075A
:1028F000394305E04FF65F77394044F0100739431C
:1029000002830184F0BD0000002C0140003401402E
:102910000004004000080040000C0040F0B50C46E8
:102920001546002200210026078C4FF6FF6C07EAAF
:102930000C070784828B018C4FF6FF7707EA042689
:102940004FF60C773A404FF6FF7707EA03172F430D
:102950003A43114FB8420ED0104FB8420BD0B0F1ED
:10296000804F08D00E4FB84205D00E4FB84202D06B
:102970000D4FB84206D14FF6FF57394046F48077E5
:10298000394305E04FF2FF57394044F4807739432B
:1029900082830184F0BD0000002C0140003401401E
:1029A0000004004000080040000C0040F0B50C4658
:1029B0001546002200210026078C4EF6FF7C07EA10
:1029C0000C070784828B018C4FF6FF7707EA0436E9
:1029D00040F6FF473A404FF6FF7707EA05273A43AC
:1029E0004FF6FF7707EA03373A43114FB8420ED04C
:1029F000104FB8420BD0B0F1804F08D00E4FB84204
:102A000005D00E4FB84202D00D4FB84206D14DF658
:102A1000FF77394046F48057394305E047F6FF57C2
:102A2000394044F48057394382830184F0BD00006B
:102A3000002C014000340140000400400008004028
:102A4000000C004030B589B005460C460121C80293
:102A5000FFF7C0FC01210520FFF7BCFC4FF480709C
:102A6000ADF8200018208DF8230003208DF82200F7
:102A700008A92548FFF766F94FF40060ADF820007B
:102A800018208DF8230003208DF8220008A91E4885
:102A9000FFF758F9ADF81850ADF814400020ADF824
:102AA0001A00ADF8160005A9184800F0ABFA70201E
:102AB000ADF804000120ADF806000020ADF80C00D0
:102AC00001A9124800F0BEF90821104800F006FAEA
:102AD0007020ADF804000120ADF806000020ADF82C
:102AE0000C0001A9094800F00FFA0821074800F07E
:102AF00049FA0121054800F016F90121034800F0C8
:102B00001EF909B030BD000000080140002C014052
:102B100030B589B005460C4601210846FFF74AFC4E
:102B200001210420FFF756FC0220ADF814002820F4
:102B30008DF8170005A92148FFF704F902211F4865
:102B4000FFF7DDF9ADF81C50ADF818400020ADF8E6
:102B50001E00ADF81A0006A94FF0804000F052FAAE
:102B60000420ADF808000020ADF80A000120ADF8FF
:102B70000C000020ADF80E00ADF8100002A94FF0D7
:102B8000804000F0FFF81C208DF8040002208DF832
:102B9000050000208DF8060001208DF8070001A82F
:102BA000FFF77EFA01220521880700F041F9012193
:102BB000880700F0B8F809B030BD000000080140F7
:102BC00010B52D48007800F0800000284FD1012179
:102BD000880700F0C6F8D0B12748007800F0400020
:102BE000A8B12548007800F03F003F280AD12248CC
:102BF000007840F08000204908704FF6FF701F49B0
:102C0000088004E01C480078401C1B49087004211F
:102C1000080700F0A6F850B31748007800F040000D
:102C200088B11548007840F08000134908704FF0D3
:102C3000804000F093F81149088000214FF0804057
:102C400000F055F913E000200B4908700B4908808B
:102C500000214FF0804000F0A7F90748007840F0CD
:102C60004000054908700221480700F040F905219D
:102C7000880700F055F810BD280000202A00002029
:102C800010B50121044800F06CF818B10121024888
:102C900000F046F810BD00000004004030B589B0D7
:102CA00005460C4601210220FFF784FB0121052087
:102CB000FFF790FB4020ADF8200018208DF823008E
:102CC00003208DF8220008A91348FFF73BF8ADF860
:102CD0001850ADF814400020ADF81A00ADF81600F9
:102CE00005A90E4800F08EF97020ADF8040001200F
:102CF000ADF806000220ADF80C0001A9074800F06D
:102D0000A1F80821054800F0E9F80121034800F086
:102D10000AF809B030BD000000080140000400407E
:102D2000CA430282704721B1028842F00102028048
:102D300004E002884FF6FE731A400280704731B1FA
:102D4000B0F8442042F40042A0F8442005E0B0F876
:102D50004420C2F30E02A0F8442070470146088FB9
:102D6000704730B50246002000230024158A05EA8A
:102D70000103958905EA010413B10CB1012000E0BB
:102D8000002030BD70B505460C46244885420ED063
:102D9000234885420BD0B5F1804F08D021488542A9
:102DA00005D02148854202D02048854200D100E06C
:102DB00000BF208850B92389A28861882846FFF780
:102DC00021FDE188284600F0F1F825E0208804285C
:102DD0000AD12389A28861882846FFF753FDE1883C
:102DE000284600F0ECF817E0208808280AD123894B
:102DF000A28861882846FFF791FDE188284600F007
:102E0000EBF809E02389A28861882846FFF7CEFD08
:102E1000E188284600F0E9F870BD0000002C014070
:102E2000003401400004004000080040000C004055
:102E30001AB183890B43838102E083898B438381A9
:102E40007047000070B5002400220023058C4FF667
:102E5000FE7635400584028C8388048B4FF68F758F
:102E60002C40B51E2C400D882C43751E2A400D8920
:102E70002A434D882A43144DA8420BD0134DA84233
:102E800008D0134DA84205D0124DA84202D0124DD1
:102E9000A84213D14FF6F7752A404D892A434FF6C1
:102EA000FB752A408D882A434FF6FF652B404FF66D
:102EB000FF552B408D892B43CD892B438380048381
:102EC000CD888586028470BD002C0140003401400D
:102ED0000040014000440140004801400A460021F2
:102EE000018B4FF6F77319401143018370470A466F
:102EF0000021018C4FF6DF7319404FF6FF7303EA90
:102F0000021319430184704770B500220023002486
:102F1000058C4EF6FF7635400584038C8488828BC1
:102F200048F6FF752A404FF6FF452A400D884FF6B8
:102F3000FF7606EA05252A434DF6FF752B400D89DD
:102F400006EA05352B434D8806EA05352B430B4D24
:102F5000A84202D00A4DA84208D14BF6FF752C407A
:102F60008D894FF6FF7606EA85152C43848082838F
:102F7000CD88A0F84050038470BD0000002C0140B3
:102F8000003401400A460021818B4FF2FF73194043
:102F90004FF6FF7303EA022319438183704781864A
:102FA0007047A0F84010704781847047028B4FF63D
:102FB000F3731A400283028B0A4302837047028B29
:102FC0004FF2FF331A400283028B4FF6FF7303EA7E
:102FD00001231A4302837047828B4FF6F3731A4022
:102FE0008283828B0A4382837047828B4FF2FF3346
:102FF0001A408283828B4FF6FF7303EA01231A4340
:1030000082837047002202881D4B98420ED01D4BD0
:1030100098420BD0B0F1804F08D01B4B984205D09E
:103020001A4B984202D01A4B984204D14FF68F7334
:103030001A404B881A43174B984207D0164B9842B8
:1030400004D04FF6FF431A40CB881A4302808B8886
:1030500083850B8803850A4B98420BD0094B984215
:1030600008D00E4B984205D00D4B984202D00D4B24
:10307000984201D10B7A03860123838270470000B6
:10308000002C0140003401400004004000080040D2
:10309000000C0040001000400014004000400140BF
:1030A000004401400048014010B540F22551254838
:1030B00000F0A9F8002843D0224800F05FF9C4B21C
:1030C000412C02D1012020490860422C02D102206B
:1030D0001D490860432C02D103201B4908601B488E
:1030E000008800F4004058BB1848008800F4804075
:1030F00060B10A2C03D000201449088020E0134856
:10310000008840F400401149088019E00D2C06D1D8
:103110000E48008840F480400C49088010E00B48BD
:103120000088C0F30D000A490C5408480088401C70
:103130000649088008460088C72801DD002008806D
:1031400010BD0000003801400800002034000020BD
:103150005600002010B540F225511B4800F053F8EE
:10316000002830D0184800F009F9C4B2412C02D12F
:10317000012016490860422C02D102201349086040
:10318000432C02D1032011490860452C02D10420B0
:103190000E490860462C02D105200C490860472CD6
:1031A00002D101200A490860482C02D102200849B6
:1031B0000860492C02D10320054908604A2C02D13D
:1031C00004200349086010BD004800400C000020A6
:1031D0001000002021B1828942F40052828104E073
:1031E00082894DF6FF731A408281704702460020A3
:1031F000B1F5007F00D100BF13880B400BB1012057
:1032000000E00020704770B502460024002300252E
:10321000002040F66A16B14200D100BFC1F342154A
:1032200001F01F03012606FA03F3012D02D196894E
:10323000334006E0022D02D1168A334001E0968A1F
:1032400033400C12012606FA04F41688344013B1F8
:103250000CB1012000E0002070BDF0B50346002451
:1032600000260025002040F66A17B94200D100BFB1
:103270001846C1F3421401F01F06012707FA06F5AC
:10328000012C01D10C3004E0022C01D1103000E0FF
:1032900014301AB107682F43076002E00768AF4394
:1032A0000760F0BD2DE9F04786B005460E460024C4
:1032B000A24600BFA1460027B08900B100BF2F463B
:1032C0002C8A4CF6FF700440F08804432C82AC89B1
:1032D0004EF6F3100440B0883189084371890843E1
:1032E0000443AC81AC8A4FF6FF400440B0890443EC
:1032F000AC8201A8FFF78EF81F48874202D1DDF8A3
:1033000010A001E0DDF80CA0A88900F4004040B155
:103310000AEBCA0000EB0A1031684900B0FBF1F873
:1033200007E00AEBCA0000EB0A1031688900B0FB25
:10333000F1F86420B8FBF0F004012009642101FBDE
:103340001089A88900F4004040B1322000EBC90088
:10335000B0FBF1F000F00700044308E0322000EB7E
:1033600009106421B0FBF1F000F00F0004432C8140
:1033700006B0BDE8F08700000038014001468888AB
:10338000C0F308007047C1F308028280704700BF95
:10339000FEE70FB430B5C1B0054601AC46A80090B9
:1033A00001A8009A4599FCF767FF002000900BE008
:1033B00014F8011B2846FFF7E6FF00BF402128460E
:1033C000FFF714FF0028F9D020780028F0D14FF43F
:1033D000807101A8FDF778F841B030BC5DF814FBAE
:1033E0002DE9F04105462C464FF480411248FEF786
:1033F00086FD00261CE0274607F08007802F04D1B9
:1034000039020D48FEF77DFD04E04FF400410A4803
:10341000FEF775FD6006040E4FF480410648FEF786
:1034200070FD4FF480410448FEF769FD701CC6B280
:10343000082EE0DBBDE8F0810010014010B5044625
:10344000FEF796FD7820FFF7CBFFFEF7BDFD0020CD
:10345000FFF7C6FFFEF7B8FD2046FFF7C1FFFEF7F6
:10346000B3FDFEF79DFD10BD10B50446FEF780FDCF
:103470007820FFF7B5FFFEF7A7FD4020FFF7B0FF6C
:10348000FEF7A2FD2046FFF7ABFFFEF79DFDFEF71E
:1034900087FD10BD490050EAC12018BF04204A0D25
:1034A00018BF40F0010040F2FF72B2EB515F08BF5D
:1034B00040F00200012808BF0520704730380A2874
:1034C00001D2012070470020704700BF7047000004
:1034D00010B56FF00400FFF709F90A4800680A49BF
:1034E000B0FBF1F0094908700846007800EB400194
:1034F000C1EBC0104FF6FF7101EAC000044908801B
:1035000010BD00001400002000127A002C000020E2
:103510002E0000200146114A12884A434FF0E02352
:103520005A6100229A611A46126942F001021A6138
:1035300000BF4FF0E022106900F001021AB100F460
:103540008032002AF5D04FF0E022126922F0010209
:103550004FF0E0231A6100229A6170472E0000208C
:103560000146114A12784A434FF0E0235A61002283
:103570009A611A46126942F001021A6100BF4FF0C7
:10358000E022106900F001021AB100F48032002A32
:10359000F5D04FF0E022126922F001024FF0E02353
:1035A0001A6100229A6170472C0000204FF4A0603D
:1035B000FEF7AEFDFFF78CFF4FF4E13000F05AFA52
:1035C0004FF4E13000F0A6FAFEF72AFDFFF7D4F839
:1035D000FEF7E4FAFFF7ECF8FEF7C4FDFEF7A2FDF4
:1035E000FEF73AFA40F2671140F2CF70FFF72AFA7D
:1035F00040F29F5140F2E730FFF750FB4FF4FA7171
:10360000FD48FFF7CCFC4FF4FA71FB48FFF7C9FC0B
:10361000FEF7DCFF47214FF6FF70FFF779FA28E24B
:103620000A210420FEF78AFC8146484600F0ECFDA2
:10363000824600F0BDFD07464FF06632EF4B00F0CA
:10364000B9FC054600F0E6FA0446ED49204600F0D4
:10365000EFFD074600F0ACFD05462A460B46E9A102
:10366000EB48FCF71BFE1023E94A00210C20FEF773
:103670006BFEFEF759FF05462A46E6A1E448FCF733
:103680000DFE1023E24A03210C20FEF75DFEE44804
:10369000E4A10268DE48FCF701FE1023DC4A0621A3
:1036A0000C20FEF751FEDE48E1A10268E248FFF778
:1036B00070FEDB48006890B95021E048FFF76FFCCE
:1036C000C820FFF727FF0020DD490860DD49C1F869
:1036D000B001DB4930390860DA49C1F88001D048CF
:1036E000006801281DD1FEF71FFF142804DDFEF736
:1036F000E7FA3220FFF70EFFFEF716FF0F2804DA75
:10370000FEF7F0F93220FFF705FF0020CC490860F2
:10371000CC49C1F8B001CA4930390860C949C1F87B
:103720008001BF480068022862D1C74800680128AC
:103730000DD1C6480068C043C549C1F8B401FEF7C1
:10374000BFFA6420FFF7E6FE0020BF490860BE48CC
:10375000006802280DD1BD480068C043BC49C1F8CB
:10376000B401FEF7BFF96420FFF7D4FE0020B6498C
:103770000860B548006803280DD1B4480068C0430C
:10378000B349C1F8B401FEF7AFFE6420FFF7C2FEF3
:103790000020AD490860AC48006804280DD1AB4852
:1037A0000068C043AA49C1F8B401FEF755FC642083
:1037B000FFF7B0FE0020A4490860A3480068052870
:1037C00016D1A2480068C043A149C1F8B401002045
:1037D0009B490860091F0860994930390860994978
:1037E000C1F880016420FFF795FE0020964908602B
:1037F0008B480068032844D150219048FFF7CFFB45
:10380000C820FFF787FEFEF78FFE192805DDFEF7BB
:1038100057FA4FF4FA70FFF77DFEFEF785FE192880
:103820002FDA32218548FFF7BAFBC820FFF772FE76
:10383000FEF77AFE192806DDFEF756FE4FF42F70CC
:10384000FFF768FE1DE06E217C48FFF7A8FBC8204B
:10385000FFF760FEFEF768FE192806DDFEF7FCFBA9
:103860004FF42F70FFF756FE0BE0FEF73BF94FF4D5
:103870002F70FFF74FFEFEF737FE4FF42F70FFF764
:1038800049FE6748006804287ED120217148FEF770
:103890002DFBA0B910216F48FEF728FB78B908214D
:1038A0006C48FEF723FB50B94FF400416A48FEF71D
:1038B0001DFB20B9FEF704FA3220FFF72BFE202172
:1038C0006448FEF713FBA8B910216248FEF70EFB0F
:1038D00001280FD108215F48FEF708FB50B94FF4CB
:1038E00000415D48FEF702FB20B9FEF7FDFD962082
:1038F000FFF710FE20215748FEF7F8FA012814D1EF
:1039000010215448FEF7F2FA78B908215148FEF721
:10391000EDFA50B94FF400414F48FEF7E7FA20B9ED
:10392000FEF7E2FDFA20FFF7F5FD20214948FEF7FA
:10393000DDFA012816D110214648FEF7D7FA0128F2
:1039400010D108214348FEF7D1FA58B94FF400418D
:103950004148FEF7CBFA28B9FEF7C6FD4FF4967042
:10396000FFF7D8FD20213B48FEF7C0FAB0B910217F
:103970003848FEF7BBFA88B908213648FEF7B6FA90
:1039800001280BD1C10300E068E03348FEF7AEFA2E
:1039900020B9FEF761FB9620FFF7BCFD20212D48E2
:1039A000FEF7A4FAA8B910212A48FEF79FFA80B9B9
:1039B00008212848FEF79AFA58B94FF400412648E2
:1039C000FEF794FA012804D1FEF746FBFA20FFF730
:1039D000A1FD20211F48FEF789FAF8BB10211D48E0
:1039E000FEF784FAD0BB08211A48FEF77FFA0128B7
:1039F0003FD1C103184832E0002C014066664A3FBF
:103A00000000E040553A252E3266202020000000BC
:103A10004C000020443A2564202020202020000073
:103A2000100000204D6F64653A25642020200000BE
:103A30004D6F64653A256400004800400004004072
:103A4000B4812142008021420C000020B4012242B6
:103A500000002242000C01400008014009E0FEF78E
:103A600045FA012805D1FEF7F7FA4FF49670FFF7F3
:103A700051FDD5E510B586B00446012144F204009D
:103A8000FEF7A8FC4FF40070ADF8140003208DF889
:103A9000160018208DF8170005A91C48FEF752F9EA
:103AA0004FF48060ADF8140004208DF8170005A9CC
:103AB0001648FEF747F925208DF8000003208DF801
:103AC00001008DF8020001208DF803006846FEF722
:103AD000E7FA01940020ADF80800ADF80A00ADF84F
:103AE0000C00ADF810000C20ADF80E0001A908483C
:103AF000FFF7D8FB012240F225510548FFF7ADFB47
:103B000001210348FFF766FB06B010BD0008014025
:103B10000038014010B586B0044601218804FEF744
:103B200049FC01210820FEF755FC4FF48060ADF8F8
:103B3000140003208DF8160018208DF8170005A931
:103B40001C48FEF7FFF84FF40060ADF814000420A5
:103B50008DF8170005A91748FEF7F4F827208DF80F
:103B6000000003208DF801008DF8020001208DF87F
:103B700003006846FEF794FA01940020ADF80800AF
:103B8000ADF80A00ADF80C00ADF810000C20ADF84F
:103B90000E0001A90848FFF785FB012240F22551DC
:103BA0000548FFF75AFB01210348FFF713FB06B056
:103BB00010BD0000000C01400048004010B5002975
:103BC0000AD00878002807D005487844FDF746FA5F
:103BD000002801D0002010BD0248784410BD00002C
:103BE000121100000A11000010B500290AD008784F
:103BF000002807D005487844FDF730FA002801D0A6
:103C0000002010BD0248784410BD000002110000E1
:103C1000FA10000021F00042A2F16052B2F5801FBC
:103C200001F0004328BFD2F17F6C0BD95FEA001C82
:103C300043EAC20242EB507018BF704728BF20F021
:103C400001007047B2F5801FBCBF184670474FEAAD
:103C5000410C1CF5001F02D2084600F0B0BB70B545
:103C600000F052FA00000089FFF7F6BF4FF0004065
:103C7000A0F58000704700002DE9C04130B4DFF8A6
:103C8000A0C23CEA111418BF3CEA131400F0EC8007
:103C900081EA03051CEA111444EAD57418BF1CEA32
:103CA000131500F0C780A4EB05044FF0004545EA6A
:103CB000C12145EAC32341EA505143EA525304F17A
:103CC0007F74994204F500344FEAC0204FEAC222C3
:103CD00008BF904200F09C804FEA13650FF2401637
:103CE000765D4FEA134506FB05F7C7F1807706FBC3
:103CF00007F74FEAD737A7FB03687642C8F5803845
:103D0000A7FB06CE38BFA8F1010807FB08E64FF075
:103D1000000EA6FB028CE6FB03CEDCF1000CCEF11C
:103D2000004E38BFAEF1010EA6FB0C584FF0000755
:103D30004FF00005E6FB0E87A1FB08C6A0FB07CEEF
:103D400016EB0E0645F10005E1FB076515F1E04EA7
:103D50007EBFA4F580345FEA46066D4116F1800708
:103D600045F100054FEA17274FEA066647EA05675F
:103D7000A6F1DE46B6F1805F4FEA15251FD9384619
:103D800024F0010C05EBC471BCF1FE6F01EB0C11CA
:103D900002D8F0BCBDE8008124425CBF01F5801E62
:103DA0009EEAC47F02D4F0BCBDE80081244238D42E
:103DB000F0BCA1F1C041BDE8004100F0F3B94FEA09
:103DC000D22242EA43524FEAD323A7FB02864FEAAC
:103DD000D02040EA415007FB03661EEA0E0F4FEA6F
:103DE000D12105FB026658BFA6EB0056B6EB005684
:103DF0004FEA520E4EEAC37E18EB0E0E56EB530EF0
:103E0000BDD518EB02085E417F1C55F10005B6E7F1
:103E10004FF480154FF000074FF000064FF00008F8
:103E2000ADE7F0BC4FF0000001F1C04101F00041EE
:103E3000BDE8008111EA0C1F0CEA131500D00CE05C
:103E400013EA0C1F00F025804FF00000F0BC81EA5F
:103E5000030101F00041BDE80081F0BCBDE8004174
:103E600081EA030100F09EB9F0BCBDE8004170B5E5
:103E700000F04AF9097EFC3E00F007B881EA030130
:103E80004FF0000001F00041704781EA030100F0AB
:103E900089B9F0BCBDE800414FF0000021497047EE
:103EA000FFFDFBF9F7F5F4F2F0EEEDEBE9E8E6E4FF
:103EB000E3E1E0DEDDDBDAD8D7D5D4D3D1D0CFCD86
:103EC000CCCBCAC8C7C6C5C4C2C1C0BFBEBDBCBBBF
:103ED000BAB9B8B7B6B5B4B3B2B1B0AFAEADACABBA
:103EE000AAA9A8A8A7A6A5A4A3A3A2A1A09F9F9E94
:103EF0009D9C9C9B9A999998979796959594939346
:103F0000929191908F8F8E8E8D8C8C8B8B8A8989DC
:103F1000888887878685858484838382828181805F
:103F20000000FF070000F87F4FEA41034FEA5353B8
:103F3000A3F58063D3F11E03C8BFD3F1210C0CDDC0
:103F40004FF0004242EAC12242EA505232FA03FCE8
:103F50008CEAE17CACEBE1707047102BC4BF002011
:103F6000704703F5787CBCF1FF3F04D06FF000424E
:103F700082EA2100704770B500F0C6F849922480AB
:103F800000207047F2E710F0004248BF4042B0FA0C
:103F900080F310FA03F10AD0C3F11D0303F5806327
:103FA0004FEA415002EB035202EBD12170474FF030
:103FB00000007047DFF848C170B51CEA111E1EBF33
:103FC0001CEA13159EEA0C0F95EA0C0F00F06F80A7
:103FD00081EA030423EA4C134EEAD47E21EA4C1111
:103FE00041F4801143F48013AE44A1FB024CA0FBCA
:103FF0000365AEF17F7E361955EB0C05A1FB034C32
:104000004CF10003A0FB021C16EB0C06654153F1BA
:104010000003094218BF46F0010613F4007F0BD1DC
:104020004FEA03314FEA0530340341EA155140EAC3
:1040300016506FF003020AE04FEAC3214FEAC52091
:10404000F40241EA555140EA56506FF0020202EB89
:104050002E4201EB025585EACE710AD05FEA440C8C
:1040600018BF24F0004450F1000041F1000120EAA3
:10407000D47040F2FE7C624500D270BDA84214BFED
:104080004FF080444FF04044002E08BF0024BEF1A2
:10409000806FA8BFA1F1C041BDE8704080F282806E
:1040A0004FF0000001F1C04101F0004170479EEA6D
:1040B0000C0F0CEA131518BF95EA0C0F06D04FF041
:1040C000000081EA030E0EF0004170BD00F01CF804
:1040D0008900013E00F007B800F009B84FEA430C30
:1040E0005FEA5C5C08D081EA030100F05BB84FEA4C
:1040F000410C5FEA5C5CF6D14FF00000014970476B
:104100000000FF070000F87F0EF1020E2EF0030EF4
:104110005EF8046B364205D4012A43EB030515F51E
:10412000001F12D8012841EB010C1CF5001F0CD810
:104130000ED14FEAD17C15F5001F0CEB4C0C0CF1A5
:10414000020C08BF4CEBD37C04E04FF0080C01E0FC
:104150004FEAD37C0CEB4C0526FA05F606F0070671
:10416000B6F1040C06D20EEB860CBDE870404CF0A4
:10417000010C6047DFE80CF0090B02024FF0004130
:104180004FF00000A1F5002170BD1946104601282E
:1041900051EB010418BFD4F5001484BF002001F0D6
:1041A000004170BD0808A0F500114FEA31017047C9
:1041B00043004FEAD30C4FEA3C0C43401FBF40077B
:1041C0000CF1605113F0FE4F70471CF0006F03D1EB
:1041D00000200CF0004170470CF0004343EA50709F
:1041E00010B540EACC0000F0A4F800BF0000009237
:1041F0004FEA0001FFF7D6BF4FF000414FF000003B
:10420000A1F5002170470000B0FA80F310FA03F224
:10421000C3F19D030AD0D90501EB1220530638BF24
:10422000704700F1010008BF20F001007047000056
:104230004FF47F0C1CEAD0121EBF1CEAD11392EA85
:104240000C0F93EA0C0F00F0478090EA010F48BF73
:1042500042F480724FF0004C4CEA00204CEA0121FD
:1042600002EB0302A0FB0113A2F50002002918BF14
:1042700043F001035B0028BF4FEA330342EB2242C5
:104280005FEA132C4CEBC2502EBFBCEB436FB2F570
:104290007C0F70474FEA036CBCF1004F08BF20F061
:1042A0000100B2F57C0F38BF70470BD582F0FF02DA
:1042B00012F5803FC8BF704700F1C040D8BF00F082
:1042C0000040704700F5000C5FEA4C0C48BF704797
:1042D000B0F1C04000F073B890EA010F0CEAD113BE
:1042E00048BF42F48072624538BF634504D280EA19
:1042F000010000F00040704710B500F01AF800BF50
:104300008900013E00F007B800F009B85FEA410CEF
:104310005FEA1C6C08D080EA010000F050B85FEA48
:10432000400C5FEA1C6CF6D14FF00040A0F5800015
:1043300070470EF1020E2EF0030E5EF8044B24427D
:1043400004D44FEA4102B2F17F4F11D84FEA400343
:10435000B3F17F4F0CD80ED14FEAD07CB2F17F4F32
:104360000CEB4C0C0CF1020C08BF4CEBD17C04E0C4
:104370004FF0080C01E04FEAD17C0CEB4C0324FA1F
:1043800003F404F00704B4F1040C06D20EEB840C21
:10439000BDE810404CF0010C6047DFE80CF0070866
:1043A00002024FF00040A0F5800010BD0846420018
:1043B00018BFD2F1807288BF00F0004010BDFF210D
:1043C00041EAD050C0057047FCF751BA0000000028
:1043D00000000000002F000000000700070000148C
:1043E0007F147F1400242A7F2A120062640813239A
:1043F00000364955225000000503000000001C2231
:104400004100000041221C000014083E081400086E
:10441000083E0808000000A060000008080808081E
:10442000000060600000002010080402003E5149B6
:10443000453E0000427F4000004261514946002154
:1044400041454B31001814127F100027454545396E
:10445000003C4A49493000017109050300364949C9
:10446000493600064949291E000036360000000082
:1044700056360000000814224100001414141414CD
:104480000000412214080002015109060032495976
:10449000513E007C1211127C007F49494936003E92
:1044A00041414122007F4141221C007F494949414D
:1044B000007F09090901003E4149497A007F080847
:1044C000087F0000417F4100002040413F01007F04
:1044D00008142241007F40404040007F020C027FD0
:1044E000007F0408107F003E4141413E007F0909E2
:1044F0000906003E4151215E007F09192946004608
:10450000494949310001017F0101003F4040403FDE
:10451000001F2040201F003F4038403F0063140828
:104520001463000708700807006151494543000003
:104530007F41410000552A552A55000041417F0026
:10454000000402010204004040404040000001021B
:104550000400002054545478007F48444438003804
:104560004444442000384444487F0038545454188C
:1045700000087E0901020018A4A4A47C007F08049E
:1045800004780000447D4000004080847D00007F6E
:10459000102844000000417F4000007C041804788B
:1045A000007C0804047800384444443800FC242487
:1045B00024180018242418FC007C0804040800486F
:1045C0005454542000043F444020003C4040207C90
:1045D000001C2040201C003C4030403C004428107F
:1045E0002844001CA0A0A07C004464544C44141433
:1045F000141414140000000000000000000000006B
:1046000000000000000000F800000000000000337F
:104610003000000000100C06100C06000000000026
:104620000000000040C07840C0784000043F04040F
:104630003F040400007088FC08300000001820FFD0
:10464000211E0000F008F000E018000000211C030B
:104650001E211E0000F00888700000001E21232487
:104660001927211010160E000000000000000000A5
:1046700000000000000000E0180402000000000735
:104680001820400000020418E0000000004020183C
:1046900007000000404080F0804040000202010F0F
:1046A00001020200000000F0000000000101011FF3
:1046B00001010100000000000000000080B0700057
:1046C00000000000000000000000000000010101E7
:1046D0000101010100000000000000000030300076
:1046E0000000000000000000806018040060180650
:1046F0000100000000E010080810E000000F10208A
:1047000020100F00001010F8000000000020203FD3
:10471000202000000070080808887000003028245D
:1047200022213000003008888848300000182020FE
:1047300020110E000000C02010F800000007042423
:10474000243F240000F80888880808000019212068
:1047500020110E0000E0108888180000000F1120C2
:1047600020110E0000380808C83808000000003F7B
:10477000000000000070880808887000001C2221DA
:1047800021221C0000E010080810E0000000312287
:1047900022110F00000000C0C00000000000003027
:1047A0003000000000000080000000000000806079
:1047B00000000000000080402010080000010204FA
:1047C00008102000404040404040400004040404E1
:1047D000040404000008102040800000002010089D
:1047E00004020100007048080808F00000000030D2
:1047F00036010000C030C828E810E0000718272460
:1048000023140B000000C038E0000000203C23020D
:104810000227382008F8888888700000203F202070
:1048200020110E00C03008080808380007182020A2
:104830002010080008F808080810E000203F202099
:1048400020100F0008F88888E8081000203F20207A
:104850002320180008F88888E8081000203F20006E
:1048600003000000C03008080838000007182020A6
:10487000221E020008F808000008F808203F210165
:1048800001213F20000808F8080800000020203F10
:104890002020000000000808F8080800C080808080
:1048A0007F00000008F888C028180800203F200179
:1048B0002638200008F8080000000000203F2020D3
:1048C0002020300008F8F800F8F80800203F003FEA
:1048D000003F200008F830C00008F808203F200002
:1048E00007183F00E01008080810E0000F10202013
:1048F00020100F0008F808080808F000203F2101E8
:1049000001010000E01008080810E0000F1824243E
:1049100038504F0008F8888888887000203F2000B1
:10492000030C302000708808080838000038202167
:1049300021221C00180808F8080818000000203F71
:104940002000000008F808000008F808001F2020D8
:1049500020201F000878880000C8380800000738A9
:104960000E010000F80800F80008F800033C0700FA
:10497000073C0300081868808068180820302C0362
:10498000032C30200838C800C83808000000203F39
:104990002000000010080808C83808002038262128
:1049A00020201800000000FE020202000000007F2C
:1049B00040404000000C30C000000000000000013A
:1049C0000638C00000020202FE0000000040404025
:1049D0007F0000000000040202020400000000004A
:1049E00000000000000000000000000080808080C7
:1049F00080808080000202040000000000000000AF
:104A00000000000000008080808000000019242247
:104A100022223F2008F8008080000000003F112083
:104A200020110E000000008080800000000E112088
:104A300020201100000000808088F800000E112066
:104A400020103F200000808080800000001F222274
:104A500022221300008080F0888888180020203FE0
:104A6000202000000000808080808000006B9494F3
:104A70009493600008F8008080800000203F2100AF
:104A800000203F2000809898000000000020203F78
:104A900020200000000000809898000000C0808066
:104AA000807F000008F8000080808000203F240202
:104AB0002D302000000808F8000000000020203FF2
:104AC000202000008080808080808000203F2000A7
:104AD0003F20003F8080008080800000203F210038
:104AE00000203F200000808080800000001F2020E8
:104AF00020201F00808000808000000080FFA12017
:104B000020110E000000008080808000000E112027
:104B100020A0FF80808080008080800020203F21B6
:104B20002000010000008080808080000033242469
:104B300024241900008080E0808000000000001F15
:104B4000202000008080000000808000001F2020C6
:104B500020103F20808080000080808000010E3087
:104B60000806010080800080008080800F300C03E8
:104B70000C300F0000808000808080000020312EEB
:104B80000E312000808080000080808080818E70C7
:104B90001806010000808080808080000021302C79
:104BA0002221300000000000807C02020000000092
:104BB000003F404000000000FF0000000000000037
:104BC000FF0000000002027C800000000040403F27
:104BD00000000000000601010202040400000000C1
:104BE00000000000040000080000000000000002B7
:104BF00000010000100000000000000000000000A4
:104C00003031323334353637383941424344454602
:104C100040305800303132333435363738396162FC
:104C2000636465664030780002400000000000A028
:104C30000000000005400000000000C80000000067
:104C40000C4000000000409C0000000019400000E3
:104C50000020BCBE0000000034400000BFC91B8E15
:104C600000000004B5400000504BCFD06607E2CFF3
:104C7000010000006C4100003E8251AADFEEA73423
:104C800001000000D9420000DCB5A0E23A301F97D5
:104C9000FFFFFFFFB4450000FD25A0C8E9A3C14FF9
:104CA000FFFFFFFFFF3F000000000080000000004A
:104CB000FF3F00000000008000000000084E0008D8
:104CC000000000204C00000028010008544E00089D
:104CD0004C00002034070000440100081C000000C4
:104CE00043000000F8FFFFFF0C0000000E00000072
:104CF0000F0000002E000000100100004300000023
:104D0000F8FFFFFF004040404040404040404141EC
:104D10004141414040404040404040404040404090
:104D2000404040404005020202020202020202022A
:104D30000202020202202020202020202020200227
:104D400002020202020290909090909010101010B7
:104D50001010101010101010101010101010101053
:104D600002020202020288888888888808080808E7
:104D700008080808080808080808080808080808B3
:104D800002020202400000000000000000000000DB
:104D90000000000000000000000000000000000013
:104DA0000000000000000000000000000000000003
:104DB00000000000000000000000000000000000F3
:104DC00000000000000000000000000000000000E3
:104DD00000000000000000000000000000000000D3
:104DE00000000000000000000000000000000000C3
:104DF00000000000000000000000000000000000B3
:104E000000000000000000000000000000000000A2
:104E100000000000000000000000000000A24A04A2
:104E2000000000000000000001020304060708095A
:104E30000000000000000000000000000000000072
:104E4000000001020304010203040607080902042A
:044E50000608000050
:0400000508000235B8
:00000001FF
